{
  "abi": [
    {
      "inputs": [
        {
          "internalType": "contract IERC20",
          "name": "_token",
          "type": "address"
        },
        {
          "internalType": "uint128",
          "name": "_annualYieldRate",
          "type": "uint128"
        },
        {
          "internalType": "address",
          "name": "_tokenowner",
          "type": "address"
        }
      ],
      "stateMutability": "nonpayable",
      "type": "constructor"
    },
    {
      "inputs": [
        {
          "internalType": "address",
          "name": "owner",
          "type": "address"
        }
      ],
      "name": "OwnableInvalidOwner",
      "type": "error"
    },
    {
      "inputs": [
        {
          "internalType": "address",
          "name": "account",
          "type": "address"
        }
      ],
      "name": "OwnableUnauthorizedAccount",
      "type": "error"
    },
    {
      "inputs": [],
      "name": "Staking_FailedTransaction",
      "type": "error"
    },
    {
      "anonymous": false,
      "inputs": [
        {
          "indexed": true,
          "internalType": "address",
          "name": "user",
          "type": "address"
        },
        {
          "indexed": false,
          "internalType": "uint256",
          "name": "amount",
          "type": "uint256"
        },
        {
          "indexed": false,
          "internalType": "uint256",
          "name": "penalty",
          "type": "uint256"
        }
      ],
      "name": "EarlyWithdrawal",
      "type": "event"
    },
    {
      "anonymous": false,
      "inputs": [
        {
          "indexed": true,
          "internalType": "address",
          "name": "previousOwner",
          "type": "address"
        },
        {
          "indexed": true,
          "internalType": "address",
          "name": "newOwner",
          "type": "address"
        }
      ],
      "name": "OwnershipTransferred",
      "type": "event"
    },
    {
      "anonymous": false,
      "inputs": [
        {
          "indexed": true,
          "internalType": "address",
          "name": "user",
          "type": "address"
        },
        {
          "indexed": false,
          "internalType": "uint256",
          "name": "amount",
          "type": "uint256"
        }
      ],
      "name": "RewardsClaimed",
      "type": "event"
    },
    {
      "anonymous": false,
      "inputs": [
        {
          "indexed": true,
          "internalType": "address",
          "name": "user",
          "type": "address"
        },
        {
          "indexed": false,
          "internalType": "uint256",
          "name": "amount",
          "type": "uint256"
        }
      ],
      "name": "StakeWithdrawn",
      "type": "event"
    },
    {
      "anonymous": false,
      "inputs": [
        {
          "indexed": true,
          "internalType": "address",
          "name": "user",
          "type": "address"
        },
        {
          "indexed": false,
          "internalType": "uint256",
          "name": "amount",
          "type": "uint256"
        }
      ],
      "name": "TokensBurned",
      "type": "event"
    },
    {
      "anonymous": false,
      "inputs": [
        {
          "indexed": true,
          "internalType": "address",
          "name": "user",
          "type": "address"
        },
        {
          "indexed": false,
          "internalType": "uint256",
          "name": "amount",
          "type": "uint256"
        },
        {
          "indexed": false,
          "internalType": "uint256",
          "name": "period",
          "type": "uint256"
        },
        {
          "indexed": false,
          "internalType": "uint256",
          "name": "annualYieldRate",
          "type": "uint256"
        }
      ],
      "name": "TokensStaked",
      "type": "event"
    },
    {
      "inputs": [],
      "name": "annualYieldRate",
      "outputs": [
        {
          "internalType": "uint128",
          "name": "",
          "type": "uint128"
        }
      ],
      "stateMutability": "view",
      "type": "function"
    },
    {
      "inputs": [
        {
          "internalType": "address",
          "name": "_user",
          "type": "address"
        },
        {
          "internalType": "uint256",
          "name": "_amount",
          "type": "uint256"
        },
        {
          "internalType": "uint256",
          "name": "stakeIndex",
          "type": "uint256"
        }
      ],
      "name": "burnTokens",
      "outputs": [],
      "stateMutability": "nonpayable",
      "type": "function"
    },
    {
      "inputs": [
        {
          "internalType": "uint256",
          "name": "stakeIndex",
          "type": "uint256"
        }
      ],
      "name": "claimRewards",
      "outputs": [],
      "stateMutability": "nonpayable",
      "type": "function"
    },
    {
      "inputs": [
        {
          "internalType": "uint256",
          "name": "",
          "type": "uint256"
        }
      ],
      "name": "earlyWithdrawalPenalties",
      "outputs": [
        {
          "internalType": "uint256",
          "name": "",
          "type": "uint256"
        }
      ],
      "stateMutability": "view",
      "type": "function"
    },
    {
      "inputs": [
        {
          "internalType": "uint256",
          "name": "_index",
          "type": "uint256"
        }
      ],
      "name": "getStake",
      "outputs": [
        {
          "components": [
            {
              "internalType": "uint256",
              "name": "amount",
              "type": "uint256"
            },
            {
              "internalType": "uint32",
              "name": "startTimestamp",
              "type": "uint32"
            },
            {
              "internalType": "uint256",
              "name": "period",
              "type": "uint256"
            },
            {
              "internalType": "uint256",
              "name": "annualYieldRate",
              "type": "uint256"
            },
            {
              "internalType": "bool",
              "name": "withdrawn",
              "type": "bool"
            },
            {
              "internalType": "uint256",
              "name": "lastClaimTimestamp",
              "type": "uint256"
            },
            {
              "internalType": "uint256",
              "name": "lastRewardTimestamp",
              "type": "uint256"
            },
            {
              "internalType": "uint256",
              "name": "accumulatedRewards",
              "type": "uint256"
            },
            {
              "internalType": "uint256",
              "name": "currentRewards",
              "type": "uint256"
            }
          ],
          "internalType": "struct Staking.Stake",
          "name": "",
          "type": "tuple"
        }
      ],
      "stateMutability": "view",
      "type": "function"
    },
    {
      "inputs": [],
      "name": "getStakeCount",
      "outputs": [
        {
          "internalType": "uint256",
          "name": "",
          "type": "uint256"
        }
      ],
      "stateMutability": "view",
      "type": "function"
    },
    {
      "inputs": [],
      "name": "owner",
      "outputs": [
        {
          "internalType": "address",
          "name": "",
          "type": "address"
        }
      ],
      "stateMutability": "view",
      "type": "function"
    },
    {
      "inputs": [],
      "name": "renounceOwnership",
      "outputs": [],
      "stateMutability": "nonpayable",
      "type": "function"
    },
    {
      "inputs": [
        {
          "internalType": "uint256",
          "name": "_amount",
          "type": "uint256"
        },
        {
          "internalType": "uint256",
          "name": "_period",
          "type": "uint256"
        }
      ],
      "name": "stakeTokens",
      "outputs": [],
      "stateMutability": "nonpayable",
      "type": "function"
    },
    {
      "inputs": [
        {
          "internalType": "address",
          "name": "",
          "type": "address"
        },
        {
          "internalType": "uint256",
          "name": "",
          "type": "uint256"
        }
      ],
      "name": "stakes",
      "outputs": [
        {
          "internalType": "uint256",
          "name": "amount",
          "type": "uint256"
        },
        {
          "internalType": "uint32",
          "name": "startTimestamp",
          "type": "uint32"
        },
        {
          "internalType": "uint256",
          "name": "period",
          "type": "uint256"
        },
        {
          "internalType": "uint256",
          "name": "annualYieldRate",
          "type": "uint256"
        },
        {
          "internalType": "bool",
          "name": "withdrawn",
          "type": "bool"
        },
        {
          "internalType": "uint256",
          "name": "lastClaimTimestamp",
          "type": "uint256"
        },
        {
          "internalType": "uint256",
          "name": "lastRewardTimestamp",
          "type": "uint256"
        },
        {
          "internalType": "uint256",
          "name": "accumulatedRewards",
          "type": "uint256"
        },
        {
          "internalType": "uint256",
          "name": "currentRewards",
          "type": "uint256"
        }
      ],
      "stateMutability": "view",
      "type": "function"
    },
    {
      "inputs": [
        {
          "internalType": "uint256",
          "name": "",
          "type": "uint256"
        }
      ],
      "name": "stakingLimits",
      "outputs": [
        {
          "internalType": "uint256",
          "name": "",
          "type": "uint256"
        }
      ],
      "stateMutability": "view",
      "type": "function"
    },
    {
      "inputs": [],
      "name": "token",
      "outputs": [
        {
          "internalType": "contract IERC20",
          "name": "",
          "type": "address"
        }
      ],
      "stateMutability": "view",
      "type": "function"
    },
    {
      "inputs": [],
      "name": "totalStakedToken",
      "outputs": [
        {
          "internalType": "uint256",
          "name": "",
          "type": "uint256"
        }
      ],
      "stateMutability": "view",
      "type": "function"
    },
    {
      "inputs": [
        {
          "internalType": "address",
          "name": "newOwner",
          "type": "address"
        }
      ],
      "name": "transferOwnership",
      "outputs": [],
      "stateMutability": "nonpayable",
      "type": "function"
    },
    {
      "inputs": [
        {
          "internalType": "uint256",
          "name": "stakeIndex",
          "type": "uint256"
        }
      ],
      "name": "withdrawLockedToken",
      "outputs": [],
      "stateMutability": "nonpayable",
      "type": "function"
    },
    {
      "inputs": [
        {
          "internalType": "uint256",
          "name": "stakeIndex",
          "type": "uint256"
        }
      ],
      "name": "withdrawStake",
      "outputs": [],
      "stateMutability": "nonpayable",
      "type": "function"
    }
  ],
  "bytecode": {
    "object": "0x60806040523480156200001157600080fd5b50604051620017993803806200179983398101604081905262000034916200030d565b33806200005b57604051631e4fbdf760e01b81526000600482015260240160405180910390fd5b6200006681620002a4565b50600180546001600160a01b038086166001600160a01b031992831617909255600280546001600160801b0386166001600160801b03199091161790556004805492841692909116919091179055620000ca670de0b6b3a76400006000196200036c565b620000de90670de0b6b3a76400006200038f565b601e60005260066020527fb6ba906ff52451a7a924e2eaeb8aea3ebee7350a8703e5e417edb25358c7dcc15562000120670de0b6b3a76400006000196200036c565b6200013490670de0b6b3a76400006200038f565b7f6ca6dcafc04b6e03616746c3528366f990e332021e35d59275be746d65cae0a755505069021e19e0c9bab24000007f1727c0104c2870c3003671480695f7dab262614528b49265008e76fd3d48c5fe555069010f0cf064dd592000007ffb78eb295a86b096b5f095822bd250a277112be4103ea4a7608d96eca726b2c18190557ff00a5d7dc5764c56ccd4375c9467b4afc0f9d6b53d77dfb27894bf31e07d5d8c55686c6b935b8bbd4000007fd14912d8608d936f2919500df1975ac4b4185902611dae9908c3e5ed8b9f346d556007602052600a7f339e4f49bde7cdbb55819ec6ed6e226bcd711f8941c3e1145454c499528c99095560147ff43bff534a6553f67e1986bf6340af95da5fd040cea3b163ecda62056a53f30255601e7f7c7042c05ffd8926d14e6f0de119749d437392e403b90a186358e40bace82d05556102d060005260327f6b5145ad54be6f72ff8caf896125b904441fb3a05372eb84d9a45ed033bcf7b255620003bb565b600080546001600160a01b038381166001600160a01b0319831681178455604051919092169283917f8be0079c531659141344cd1fd0a4f28419497f9722a3daafe3b4186f6b6457e09190a35050565b6001600160a01b03811681146200030a57600080fd5b50565b6000806000606084860312156200032357600080fd5b83516200033081620002f4565b60208501519093506001600160801b03811681146200034e57600080fd5b60408501519092506200036181620002f4565b809150509250925092565b6000826200038a57634e487b7160e01b600052601260045260246000fd5b500490565b8082028115828204841417620003b557634e487b7160e01b600052601160045260246000fd5b92915050565b6113ce80620003cb6000396000f3fe608060405234801561001057600080fd5b50600436106101005760003560e01c80638d01857b11610097578063e0aeb7c111610066578063e0aeb7c1146102e0578063e4188bb0146102f3578063f2fde38b14610313578063fc0c546a1461032657600080fd5b80638d01857b146102175780638da5cb5b1461022a578063cb6d8ee61461024f578063ce325bf81461025857600080fd5b80633b7b6188116100d35780633b7b618814610175578063584b62a1146101885780636abe7139146101e4578063715018a61461020f57600080fd5b8063054d8310146101055780630962ef791461013857806325d5971f1461014d5780632e4ab48a14610160575b600080fd5b610125610113366004611167565b60066020526000908152604090205481565b6040519081526020015b60405180910390f35b61014b610146366004611167565b610339565b005b61014b61015b366004611167565b610543565b33600090815260056020526040902054610125565b61014b610183366004611180565b6107e4565b61019b6101963660046111be565b610bb5565b60408051998a5263ffffffff90981660208a0152968801959095526060870193909352901515608086015260a085015260c084015260e08301526101008201526101200161012f565b6002546101f7906001600160801b031681565b6040516001600160801b03909116815260200161012f565b61014b610c28565b61014b610225366004611167565b610c3c565b6000546001600160a01b03165b6040516001600160a01b03909116815260200161012f565b61012560035481565b61026b610266366004611167565b610e63565b60405161012f91906000610120820190508251825263ffffffff6020840151166020830152604083015160408301526060830151606083015260808301511515608083015260a083015160a083015260c083015160c083015260e083015160e083015261010080840151818401525092915050565b61014b6102ee3660046111e8565b610f61565b610125610301366004611167565b60076020526000908152604090205481565b61014b61032136600461121b565b611060565b600154610237906001600160a01b031681565b3360009081526005602052604090205481106103705760405162461bcd60e51b815260040161036790611236565b60405180910390fd5b33600090815260056020526040812080548390811061039157610391611263565b60009182526020909120600990910201600481015490915060ff16156103c95760405162461bcd60e51b815260040161036790611279565b60006103dd8260000154836002015461109e565b9050808260070154111561042c5760405162461bcd60e51b8152602060048201526016602482015275115e18d9595908195e1c1958dd1959081c995dd85c9960521b6044820152606401610367565b6005820154429062278d00906000906104469083906112c6565b9050808310156104945760405162461bcd60e51b815260206004820152601960248201527852657761726473206e6f742079657420636c61696d61626c6560381b6044820152606401610367565b6000620151808660050154856104aa91906112d9565b6104b491906112ec565b905060006104c687600001548361109e565b9050808760070160008282546104dc91906112c6565b92505081905550808760080160008282546104f791906112c6565b90915550506005870185905560405181815233907ffc30cddea38e2bf4d6ea7d3f9ed3b6ad7f176419f4963bd81318067a4aee73fe906020015b60405180910390a25050505050505050565b3360009081526005602052604090205481106105715760405162461bcd60e51b815260040161036790611236565b33600090815260056020526040812080548390811061059257610592611263565b60009182526020909120600990910201600481015490915060ff16156105ca5760405162461bcd60e51b815260040161036790611279565b60006105de8260000154836002015461109e565b905060008260080154905081836007015411156106365760405162461bcd60e51b8152602060048201526016602482015275115e18d9595908195e1c1958dd1959081c995dd85c9960521b6044820152606401610367565b8060000361067e5760405162461bcd60e51b815260206004820152601560248201527452657761726473206e6f7420617661696c61626c6560581b6044820152606401610367565b600683015442906230c780906000906106989083906112c6565b90508083116106e55760405162461bcd60e51b815260206004820152601960248201527852657761726473206e6f742079657420636c61696d61626c6560381b6044820152606401610367565b60068601839055600060088701556007860154851161070e5760048601805460ff191660011790555b600154600480546040516323b872dd60e01b81526001600160a01b03918216928101929092523360248301526044820187905260009216906323b872dd906064016020604051808303816000875af115801561076e573d6000803e3d6000fd5b505050506040513d601f19601f82011682018060405250810190610792919061130e565b9050806107b257604051632f8293c360e11b815260040160405180910390fd5b60405185815233907ffc30cddea38e2bf4d6ea7d3f9ed3b6ad7f176419f4963bd81318067a4aee73fe90602001610531565b600082116108345760405162461bcd60e51b815260206004820152601d60248201527f416d6f756e74206d7573742062652067726561746572207468616e20300000006044820152606401610367565b80601e1480610843575080603c145b8061084e575080605a145b8061085957508060b4145b80610865575080610168145b806108715750806102d0145b6108b65760405162461bcd60e51b8152602060048201526016602482015275125b9d985b1a59081cdd185ada5b99c81c195c9a5bd960521b6044820152606401610367565b6000818152600660205260409020548211156109205760405162461bcd60e51b8152602060048201526024808201527f45786365656473207374616b696e67206c696d697420666f72207468652070656044820152631c9a5bd960e21b6064820152608401610367565b6001546040516323b872dd60e01b8152336004820152306024820152604481018490526000916001600160a01b0316906323b872dd906064016020604051808303816000875af1158015610978573d6000803e3d6000fd5b505050506040513d601f19601f8201168201806040525081019061099c919061130e565b9050806109dc5760405162461bcd60e51b815260206004820152600e60248201526d14dd185ada5b99c819985a5b195960921b6044820152606401610367565b82600360008282546109ee91906112c6565b9250508190555060056000336001600160a01b03166001600160a01b031681526020019081526020016000206040518061012001604052808581526020014263ffffffff168152602001848152602001600260009054906101000a90046001600160801b03166001600160801b0316815260200160001515815260200142815260200142815260200160008152602001600081525090806001815401808255809150506001900390600052602060002090600902016000909190919091506000820151816000015560208201518160010160006101000a81548163ffffffff021916908363ffffffff160217905550604082015181600201556060820151816003015560808201518160040160006101000a81548160ff02191690831515021790555060a0820151816005015560c0820151816006015560e0820151816007015561010082015181600801555050336001600160a01b03167f0fc5b1bac0416800b42a669229a346b6e5a15db3896339dbdc5fa376e1e4570a8484600260009054906101000a90046001600160801b0316604051610ba89392919092835260208301919091526001600160801b0316604082015260600190565b60405180910390a2505050565b60056020528160005260406000208181548110610bd157600080fd5b600091825260209091206009909102018054600182015460028301546003840154600485015460058601546006870154600788015460089098015496995063ffffffff90951697509295919460ff90911693919089565b610c306110ea565b610c3a6000611117565b565b336000908152600560205260409020548110610c6a5760405162461bcd60e51b815260040161036790611236565b336000908152600560205260408120805483908110610c8b57610c8b611263565b60009182526020909120600990910201600481015490915060ff1615610cc35760405162461bcd60e51b815260040161036790611279565b8054610d025760405162461bcd60e51b815260206004820152600e60248201526d125b9d985b1a5908185b5bdd5b9d60921b6044820152606401610367565b6002810154610d15906201518090611337565b6001820154610d2d9063ffffffff1662093a8061134e565b63ffffffff16610d3d91906112c6565b4211610d8b5760405162461bcd60e51b815260206004820152601c60248201527f5374616b696e6720706572696f64206e6f7420636f6d706c65746564000000006044820152606401610367565b8054600080835560015460405163a9059cbb60e01b8152336004820152602481018490526001600160a01b039091169063a9059cbb906044016020604051808303816000875af1158015610de3573d6000803e3d6000fd5b505050506040513d601f19601f82011682018060405250810190610e07919061130e565b905080610e2757604051632f8293c360e11b815260040160405180910390fd5b60405182815233907f8108595eb6bad3acefa9da467d90cc2217686d5c5ac85460f8b7849c840645fc906020015b60405180910390a250505050565b610eba60405180610120016040528060008152602001600063ffffffff1681526020016000815260200160008152602001600015158152602001600081526020016000815260200160008152602001600081525090565b336000908152600560205260409020805483908110610edb57610edb611263565b60009182526020918290206040805161012081018252600990930290910180548352600181015463ffffffff169383019390935260028301549082015260038201546060820152600482015460ff1615156080820152600582015460a0820152600682015460c0820152600782015460e082015260089091015461010082015292915050565b610f696110ea565b60008211610fb95760405162461bcd60e51b815260206004820152601d60248201527f416d6f756e74206d7573742062652067726561746572207468616e20300000006044820152606401610367565b6001600160a01b0383166000908152600560205260408120805483908110610fe357610fe3611263565b906000526020600020906009020190508281600001600082825461100791906112d9565b92505081905550826003600082825461102091906112d9565b90915550506040518381526001600160a01b038516907ffd38818f5291bf0bb3a2a48aadc06ba8757865d1dabd804585338aab3009dcb690602001610e55565b6110686110ea565b6001600160a01b03811661109257604051631e4fbdf760e01b815260006004820152602401610367565b61109b81611117565b50565b60006110ad61016d6064611372565b60025461ffff919091169083906110cd906001600160801b031686611337565b6110d79190611337565b6110e191906112ec565b90505b92915050565b6000546001600160a01b03163314610c3a5760405163118cdaa760e01b8152336004820152602401610367565b600080546001600160a01b038381166001600160a01b0319831681178455604051919092169283917f8be0079c531659141344cd1fd0a4f28419497f9722a3daafe3b4186f6b6457e09190a35050565b60006020828403121561117957600080fd5b5035919050565b6000806040838503121561119357600080fd5b50508035926020909101359150565b80356001600160a01b03811681146111b957600080fd5b919050565b600080604083850312156111d157600080fd5b6111da836111a2565b946020939093013593505050565b6000806000606084860312156111fd57600080fd5b611206846111a2565b95602085013595506040909401359392505050565b60006020828403121561122d57600080fd5b6110e1826111a2565b602080825260139082015272092dcecc2d8d2c840e6e8c2d6ca40d2dcc8caf606b1b604082015260600190565b634e487b7160e01b600052603260045260246000fd5b60208082526017908201527f5374616b6520616c72656164792077697468647261776e000000000000000000604082015260600190565b634e487b7160e01b600052601160045260246000fd5b808201808211156110e4576110e46112b0565b818103818111156110e4576110e46112b0565b60008261130957634e487b7160e01b600052601260045260246000fd5b500490565b60006020828403121561132057600080fd5b8151801515811461133057600080fd5b9392505050565b80820281158282048414176110e4576110e46112b0565b63ffffffff81811683821601908082111561136b5761136b6112b0565b5092915050565b61ffff818116838216028082169190828114611390576113906112b0565b50509291505056fea26469706673582212204085507f7666fc31fa87d94d56da9f719cbf2d4a345060194c730233a2d52c6564736f6c63430008140033",
    "linkReferences": {}
  },
  "methodIdentifiers": {
    "annualYieldRate()": "6abe7139",
    "burnTokens(address,uint256,uint256)": "e0aeb7c1",
    "claimRewards(uint256)": "0962ef79",
    "earlyWithdrawalPenalties(uint256)": "e4188bb0",
    "getStake(uint256)": "ce325bf8",
    "getStakeCount()": "2e4ab48a",
    "owner()": "8da5cb5b",
    "renounceOwnership()": "715018a6",
    "stakeTokens(uint256,uint256)": "3b7b6188",
    "stakes(address,uint256)": "584b62a1",
    "stakingLimits(uint256)": "054d8310",
    "token()": "fc0c546a",
    "totalStakedToken()": "cb6d8ee6",
    "transferOwnership(address)": "f2fde38b",
    "withdrawLockedToken(uint256)": "8d01857b",
    "withdrawStake(uint256)": "25d5971f"
  },
  "id": 41
}