{"abi":[{"type":"constructor","inputs":[{"name":"_token","type":"address","internalType":"contract IERC20"},{"name":"_tokenowner","type":"address","internalType":"address"}],"stateMutability":"nonpayable"},{"type":"function","name":"burnTokens","inputs":[{"name":"_user","type":"address","internalType":"address"},{"name":"_amount","type":"uint256","internalType":"uint256"},{"name":"stakeIndex","type":"uint256","internalType":"uint256"}],"outputs":[],"stateMutability":"nonpayable"},{"type":"function","name":"claimRewards","inputs":[{"name":"stakeIndex","type":"uint256","internalType":"uint256"}],"outputs":[],"stateMutability":"nonpayable"},{"type":"function","name":"earlyWithdrawalPenalties","inputs":[{"name":"","type":"uint256","internalType":"uint256"}],"outputs":[{"name":"","type":"uint256","internalType":"uint256"}],"stateMutability":"view"},{"type":"function","name":"getRecentStakeIndex","inputs":[],"outputs":[{"name":"","type":"uint256","internalType":"uint256"}],"stateMutability":"view"},{"type":"function","name":"getStake","inputs":[{"name":"_index","type":"uint256","internalType":"uint256"}],"outputs":[{"name":"","type":"tuple","internalType":"struct Staking.Stake","components":[{"name":"amount","type":"uint256","internalType":"uint256"},{"name":"startTimestamp","type":"uint32","internalType":"uint32"},{"name":"period","type":"uint256","internalType":"uint256"},{"name":"annualYieldRate","type":"uint256","internalType":"uint256"},{"name":"withdrawn","type":"bool","internalType":"bool"},{"name":"lastClaimTimestamp","type":"uint256","internalType":"uint256"},{"name":"expectedRewardTimestamp","type":"uint256","internalType":"uint256"},{"name":"expectedRewards","type":"uint256","internalType":"uint256"},{"name":"currentRewards","type":"uint256","internalType":"uint256"}]}],"stateMutability":"view"},{"type":"function","name":"getStakeCount","inputs":[],"outputs":[{"name":"","type":"uint256","internalType":"uint256"}],"stateMutability":"view"},{"type":"function","name":"hasActiveStake","inputs":[{"name":"","type":"address","internalType":"address"}],"outputs":[{"name":"","type":"bool","internalType":"bool"}],"stateMutability":"view"},{"type":"function","name":"owner","inputs":[],"outputs":[{"name":"","type":"address","internalType":"address"}],"stateMutability":"view"},{"type":"function","name":"renounceOwnership","inputs":[],"outputs":[],"stateMutability":"nonpayable"},{"type":"function","name":"stakeTokens","inputs":[{"name":"_amount","type":"uint256","internalType":"uint256"},{"name":"_period","type":"uint256","internalType":"uint256"}],"outputs":[],"stateMutability":"nonpayable"},{"type":"function","name":"stakes","inputs":[{"name":"","type":"address","internalType":"address"},{"name":"","type":"uint256","internalType":"uint256"}],"outputs":[{"name":"amount","type":"uint256","internalType":"uint256"},{"name":"startTimestamp","type":"uint32","internalType":"uint32"},{"name":"period","type":"uint256","internalType":"uint256"},{"name":"annualYieldRate","type":"uint256","internalType":"uint256"},{"name":"withdrawn","type":"bool","internalType":"bool"},{"name":"lastClaimTimestamp","type":"uint256","internalType":"uint256"},{"name":"expectedRewardTimestamp","type":"uint256","internalType":"uint256"},{"name":"expectedRewards","type":"uint256","internalType":"uint256"},{"name":"currentRewards","type":"uint256","internalType":"uint256"}],"stateMutability":"view"},{"type":"function","name":"stakingLimits","inputs":[{"name":"","type":"uint256","internalType":"uint256"}],"outputs":[{"name":"","type":"uint256","internalType":"uint256"}],"stateMutability":"view"},{"type":"function","name":"stakingaprs","inputs":[{"name":"","type":"uint256","internalType":"uint256"}],"outputs":[{"name":"","type":"uint256","internalType":"uint256"}],"stateMutability":"view"},{"type":"function","name":"token","inputs":[],"outputs":[{"name":"","type":"address","internalType":"contract IERC20"}],"stateMutability":"view"},{"type":"function","name":"totalRewardDistributed","inputs":[],"outputs":[{"name":"","type":"uint256","internalType":"uint256"}],"stateMutability":"view"},{"type":"function","name":"totalStakedToken","inputs":[],"outputs":[{"name":"","type":"uint256","internalType":"uint256"}],"stateMutability":"view"},{"type":"function","name":"transferOwnership","inputs":[{"name":"newOwner","type":"address","internalType":"address"}],"outputs":[],"stateMutability":"nonpayable"},{"type":"event","name":"EarlyWithdrawal","inputs":[{"name":"user","type":"address","indexed":true,"internalType":"address"},{"name":"amount","type":"uint256","indexed":false,"internalType":"uint256"},{"name":"penalty","type":"uint256","indexed":false,"internalType":"uint256"}],"anonymous":false},{"type":"event","name":"OwnershipTransferred","inputs":[{"name":"previousOwner","type":"address","indexed":true,"internalType":"address"},{"name":"newOwner","type":"address","indexed":true,"internalType":"address"}],"anonymous":false},{"type":"event","name":"RewardsClaimed","inputs":[{"name":"user","type":"address","indexed":true,"internalType":"address"},{"name":"amount","type":"uint256","indexed":false,"internalType":"uint256"}],"anonymous":false},{"type":"event","name":"StakeWithdrawn","inputs":[{"name":"user","type":"address","indexed":true,"internalType":"address"},{"name":"amount","type":"uint256","indexed":false,"internalType":"uint256"}],"anonymous":false},{"type":"event","name":"TokensBurned","inputs":[{"name":"user","type":"address","indexed":true,"internalType":"address"},{"name":"amount","type":"uint256","indexed":false,"internalType":"uint256"}],"anonymous":false},{"type":"event","name":"TokensStaked","inputs":[{"name":"user","type":"address","indexed":true,"internalType":"address"},{"name":"amount","type":"uint256","indexed":false,"internalType":"uint256"},{"name":"period","type":"uint256","indexed":false,"internalType":"uint256"},{"name":"annualYieldRate","type":"uint256","indexed":false,"internalType":"uint256"}],"anonymous":false},{"type":"error","name":"OwnableInvalidOwner","inputs":[{"name":"owner","type":"address","internalType":"address"}]},{"type":"error","name":"OwnableUnauthorizedAccount","inputs":[{"name":"account","type":"address","internalType":"address"}]},{"type":"error","name":"Staking_AmountCannotBeZero","inputs":[]},{"type":"error","name":"Staking_FailedTransaction","inputs":[]},{"type":"error","name":"Staking_InvalidStakeIndex","inputs":[]},{"type":"error","name":"Staking_StakingNotOver","inputs":[]},{"type":"error","name":"Staking_StakingNotWithdrawable","inputs":[]}],"bytecode":{"object":"0x60806040523480156200001157600080fd5b5060405162001418380380620014188339810160408190526200003491620003cb565b33806200005b57604051631e4fbdf760e01b81526000600482015260240160405180910390fd5b620000668162000362565b50600180546001600160a01b038085166001600160a01b0319928316179092556004805492841692909116919091179055620000ad670de0b6b3a76400006000196200040a565b620000c190670de0b6b3a76400006200042d565b601e60005260066020527fb6ba906ff52451a7a924e2eaeb8aea3ebee7350a8703e5e417edb25358c7dcc15562000103670de0b6b3a76400006000196200040a565b6200011790670de0b6b3a76400006200042d565b7f6ca6dcafc04b6e03616746c3528366f990e332021e35d59275be746d65cae0a755505069021e19e0c9bab24000007f1727c0104c2870c3003671480695f7dab262614528b49265008e76fd3d48c5fe5569010f0cf064dd592000007ffb78eb295a86b096b5f095822bd250a277112be4103ea4a7608d96eca726b2c18190557ff00a5d7dc5764c56ccd4375c9467b4afc0f9d6b53d77dfb27894bf31e07d5d8c55686c6b935b8bbd4000007fd14912d8608d936f2919500df1975ac4b4185902611dae9908c3e5ed8b9f346d55600a7fa3046de8475047f40cb93bcd5ee006bbc09114e5f6860de753f6f8734428030581905560147f9eeae9ed695d87e82bfdfb7eb47aa6910307944ca506da5144475f3c07dabd12819055601e7f3cbbe24deeba40230b1c6fba48ad5512a12b43cfa5d1413333aae82c39a297705560327ff5d3c2d7fa82ae7654ab16c92c9fd9245fcdd52a13a5f07a8c2602de6b0a826d81905560076020527f5efb79fbc11da2125514bcdef1696210bd26aebc3ba57e1be8a36c2cafb4d47892909255600f7f52dfb2b16922ce24e27842ab7dee9de9bc28a4cc01235d2b030f6221e220c9f7557f339e4f49bde7cdbb55819ec6ed6e226bcd711f8941c3e1145454c499528c9909557ff43bff534a6553f67e1986bf6340af95da5fd040cea3b163ecda62056a53f3025560647f7c7042c05ffd8926d14e6f0de119749d437392e403b90a186358e40bace82d05556102d060005261012c7f6b5145ad54be6f72ff8caf896125b904441fb3a05372eb84d9a45ed033bcf7b25562000459565b600080546001600160a01b038381166001600160a01b0319831681178455604051919092169283917f8be0079c531659141344cd1fd0a4f28419497f9722a3daafe3b4186f6b6457e09190a35050565b6001600160a01b0381168114620003c857600080fd5b50565b60008060408385031215620003df57600080fd5b8251620003ec81620003b2565b6020840151909250620003ff81620003b2565b809150509250929050565b6000826200042857634e487b7160e01b600052601260045260246000fd5b500490565b80820281158282048414176200045357634e487b7160e01b600052601160045260246000fd5b92915050565b610faf80620004696000396000f3fe608060405234801561001057600080fd5b506004361061010b5760003560e01c8063715018a6116100a2578063ce325bf811610071578063ce325bf814610276578063e0aeb7c1146102fe578063e4188bb014610311578063f2fde38b14610331578063fc0c546a1461034457600080fd5b8063715018a6146102385780638da5cb5b14610240578063bbfd4e0c14610265578063cb6d8ee61461026d57600080fd5b8063370fc939116100de578063370fc939146101765780633b7b618814610196578063584b62a1146101a957806369486d291461020557600080fd5b8063054d8310146101105780630962ef79146101435780632e4ab48a1461015857806330188ee81461016d575b600080fd5b61013061011e366004610dca565b60066020526000908152604090205481565b6040519081526020015b60405180910390f35b610156610151366004610dca565b610357565b005b33600090815260056020526040902054610130565b61013060035481565b610130610184366004610dca565b60076020526000908152604090205481565b6101566101a4366004610de3565b6105a4565b6101bc6101b7366004610e21565b6109c6565b60408051998a5263ffffffff90981660208a0152968801959095526060870193909352901515608086015260a085015260c084015260e08301526101008201526101200161013a565b610228610213366004610e4b565b60096020526000908152604090205460ff1681565b604051901515815260200161013a565b610156610a39565b6000546001600160a01b03165b6040516001600160a01b03909116815260200161013a565b610130610a4d565b61013060025481565b610289610284366004610dca565b610aca565b60405161013a91906000610120820190508251825263ffffffff6020840151166020830152604083015160408301526060830151606083015260808301511515608083015260a083015160a083015260c083015160c083015260e083015160e083015261010080840151818401525092915050565b61015661030c366004610e6d565b610bc8565b61013061031f366004610dca565b60086020526000908152604090205481565b61015661033f366004610e4b565b610cd5565b60015461024d906001600160a01b031681565b336000908152600560205260409020548110610386576040516325f2954760e01b815260040160405180910390fd5b3360009081526005602052604081208054839081106103a7576103a7610ea0565b60009182526020909120600990910201600481015490915060ff16156103e05760405163a1f2ff9b60e01b815260040160405180910390fd5b600281015442906103f5906201518090610ecc565b600183015461040a919063ffffffff16610ee9565b81101561042a57604051634707771960e11b815260040160405180910390fd5b6000610443836000015484600301548560020154610d13565b835490915060006104548383610ee9565b90508285600801600082825461046a9190610ee9565b9250508190555082600360008282546104839190610ee9565b9091555050336000908152600960205260408120805460ff19169055600280548492906104b1908490610efc565b90915550506000855560048501805460ff1916600117905560405133907ffc30cddea38e2bf4d6ea7d3f9ed3b6ad7f176419f4963bd81318067a4aee73fe906104fd9086815260200190565b60405180910390a260015460405163a9059cbb60e01b8152336004820152602481018390526000916001600160a01b03169063a9059cbb906044016020604051808303816000875af1158015610557573d6000803e3d6000fd5b505050506040513d601f19601f8201168201806040525081019061057b9190610f0f565b90508061059b57604051632f8293c360e11b815260040160405180910390fd5b50505050505050565b816000036105c557604051630834b9b960e21b815260040160405180910390fd5b80601e14806105d4575080603c145b806105df575080605a145b806105ea57508060b4145b806105f6575080610168145b806106025750806102d0145b61064c5760405162461bcd60e51b8152602060048201526016602482015275125b9d985b1a59081cdd185ada5b99c81c195c9a5bd960521b60448201526064015b60405180910390fd5b6000818152600660205260409020548211156106b65760405162461bcd60e51b8152602060048201526024808201527f45786365656473207374616b696e67206c696d697420666f72207468652070656044820152631c9a5bd960e21b6064820152608401610643565b3360009081526009602052604090205460ff16156107165760405162461bcd60e51b815260206004820181905260248201527f596f7520616c7265616479206861766520616e20616374697665207374616b656044820152606401610643565b336000908152600960205260408120805460ff1916600117905560028054849290610742908490610ee9565b909155505060008181526007602052604081205461076290849084610d13565b905060006107736201518084610ecc565b61077d9042610ee9565b905060056000336001600160a01b03166001600160a01b031681526020019081526020016000206040518061012001604052808681526020014263ffffffff16815260200185815260200160076000878152602001908152602001600020548152602001600015158152602001428152602001838152602001848152602001600081525090806001815401808255809150506001900390600052602060002090600902016000909190919091506000820151816000015560208201518160010160006101000a81548163ffffffff021916908363ffffffff160217905550604082015181600201556060820151816003015560808201518160040160006101000a81548160ff02191690831515021790555060a0820151816005015560c0820151816006015560e0820151816007015561010082015181600801555050336001600160a01b03167f0fc5b1bac0416800b42a669229a346b6e5a15db3896339dbdc5fa376e1e4570a8585600760008881526020019081526020016000205460405161091b939291909283526020830191909152604082015260600190565b60405180910390a26001546040516323b872dd60e01b8152336004820152306024820152604481018690526000916001600160a01b0316906323b872dd906064016020604051808303816000875af115801561097b573d6000803e3d6000fd5b505050506040513d601f19601f8201168201806040525081019061099f9190610f0f565b9050806109bf57604051632f8293c360e11b815260040160405180910390fd5b5050505050565b600560205281600052604060002081815481106109e257600080fd5b600091825260209091206009909102018054600182015460028301546003840154600485015460058601546006870154600788015460089098015496995063ffffffff90951697509295919460ff90911693919089565b610a41610d4d565b610a4b6000610d7a565b565b33600090815260056020526040812054610aa95760405162461bcd60e51b815260206004820152601c60248201527f4e6f207374616b657320666f756e6420666f72207468652075736572000000006044820152606401610643565b33600090815260056020526040902054610ac590600190610efc565b905090565b610b2160405180610120016040528060008152602001600063ffffffff1681526020016000815260200160008152602001600015158152602001600081526020016000815260200160008152602001600081525090565b336000908152600560205260409020805483908110610b4257610b42610ea0565b60009182526020918290206040805161012081018252600990930290910180548352600181015463ffffffff169383019390935260028301549082015260038201546060820152600482015460ff1615156080820152600582015460a0820152600682015460c0820152600782015460e082015260089091015461010082015292915050565b610bd0610d4d565b81600003610bf157604051630834b9b960e21b815260040160405180910390fd5b6001600160a01b0383166000908152600560205260408120805483908110610c1b57610c1b610ea0565b906000526020600020906009020190506000838260000154610c3d9190610efc565b90506000610c548284600301548560020154610d13565b905084836000016000828254610c6a9190610efc565b925050819055508460026000828254610c839190610efc565b9091555050600783018190556040518581526001600160a01b038716907ffd38818f5291bf0bb3a2a48aadc06ba8757865d1dabd804585338aab3009dcb69060200160405180910390a2505050505050565b610cdd610d4d565b6001600160a01b038116610d0757604051631e4fbdf760e01b815260006004820152602401610643565b610d1081610d7a565b50565b6000610d2261016d6064610f31565b61ffff1683610d318487610ecc565b610d3b9190610ecc565b610d459190610f57565b949350505050565b6000546001600160a01b03163314610a4b5760405163118cdaa760e01b8152336004820152602401610643565b600080546001600160a01b038381166001600160a01b0319831681178455604051919092169283917f8be0079c531659141344cd1fd0a4f28419497f9722a3daafe3b4186f6b6457e09190a35050565b600060208284031215610ddc57600080fd5b5035919050565b60008060408385031215610df657600080fd5b50508035926020909101359150565b80356001600160a01b0381168114610e1c57600080fd5b919050565b60008060408385031215610e3457600080fd5b610e3d83610e05565b946020939093013593505050565b600060208284031215610e5d57600080fd5b610e6682610e05565b9392505050565b600080600060608486031215610e8257600080fd5b610e8b84610e05565b95602085013595506040909401359392505050565b634e487b7160e01b600052603260045260246000fd5b634e487b7160e01b600052601160045260246000fd5b8082028115828204841417610ee357610ee3610eb6565b92915050565b80820180821115610ee357610ee3610eb6565b81810381811115610ee357610ee3610eb6565b600060208284031215610f2157600080fd5b81518015158114610e6657600080fd5b61ffff818116838216028082169190828114610f4f57610f4f610eb6565b505092915050565b600082610f7457634e487b7160e01b600052601260045260246000fd5b50049056fea2646970667358221220c5b296b53826067250bb56e74441c40a016d6a297961ab7d2905b000ca35f71164736f6c63430008140033","linkReferences":{}},"methodIdentifiers":{"burnTokens(address,uint256,uint256)":"e0aeb7c1","claimRewards(uint256)":"0962ef79","earlyWithdrawalPenalties(uint256)":"e4188bb0","getRecentStakeIndex()":"bbfd4e0c","getStake(uint256)":"ce325bf8","getStakeCount()":"2e4ab48a","hasActiveStake(address)":"69486d29","owner()":"8da5cb5b","renounceOwnership()":"715018a6","stakeTokens(uint256,uint256)":"3b7b6188","stakes(address,uint256)":"584b62a1","stakingLimits(uint256)":"054d8310","stakingaprs(uint256)":"370fc939","token()":"fc0c546a","totalRewardDistributed()":"30188ee8","totalStakedToken()":"cb6d8ee6","transferOwnership(address)":"f2fde38b"},"id":38}