{
  "abi": [
    {
      "inputs": [
        {
          "internalType": "contract IERC20",
          "name": "_token",
          "type": "address"
        },
        {
          "internalType": "address",
          "name": "_priceFeedAddress",
          "type": "address"
        },
        {
          "internalType": "address",
          "name": "_usdc",
          "type": "address"
        },
        {
          "internalType": "address",
          "name": "_usdt",
          "type": "address"
        }
      ],
      "stateMutability": "nonpayable",
      "type": "constructor"
    },
    {
      "inputs": [
        {
          "internalType": "address",
          "name": "owner",
          "type": "address"
        }
      ],
      "name": "OwnableInvalidOwner",
      "type": "error"
    },
    {
      "inputs": [
        {
          "internalType": "address",
          "name": "account",
          "type": "address"
        }
      ],
      "name": "OwnableUnauthorizedAccount",
      "type": "error"
    },
    {
      "inputs": [],
      "name": "SeaseaToken_FailedTransaction",
      "type": "error"
    },
    {
      "inputs": [],
      "name": "SeaseaToken_InsufficientFund",
      "type": "error"
    },
    {
      "inputs": [],
      "name": "SeeSeaToken_InvalidPrice",
      "type": "error"
    },
    {
      "inputs": [],
      "name": "SeeSeaToken_PriceBelowMinPrice",
      "type": "error"
    },
    {
      "inputs": [],
      "name": "SeeSeaToken_PurchaseHasEnded",
      "type": "error"
    },
    {
      "inputs": [],
      "name": "SeeSeaToken__StalePrice",
      "type": "error"
    },
    {
      "inputs": [],
      "name": "SeeseaToken_NotEnoughToken",
      "type": "error"
    },
    {
      "inputs": [],
      "name": "SeeseaToken_TokenNotSupported",
      "type": "error"
    },
    {
      "anonymous": false,
      "inputs": [
        {
          "indexed": true,
          "internalType": "address",
          "name": "previousOwner",
          "type": "address"
        },
        {
          "indexed": true,
          "internalType": "address",
          "name": "newOwner",
          "type": "address"
        }
      ],
      "name": "OwnershipTransferred",
      "type": "event"
    },
    {
      "anonymous": false,
      "inputs": [
        {
          "indexed": true,
          "internalType": "address",
          "name": "user",
          "type": "address"
        },
        {
          "indexed": false,
          "internalType": "uint256",
          "name": "amount",
          "type": "uint256"
        }
      ],
      "name": "PurchaseToken",
      "type": "event"
    },
    {
      "inputs": [],
      "name": "SEE_SEA_AI_PRECISION",
      "outputs": [
        {
          "internalType": "uint256",
          "name": "",
          "type": "uint256"
        }
      ],
      "stateMutability": "view",
      "type": "function"
    },
    {
      "inputs": [],
      "name": "USDT_PRICE",
      "outputs": [
        {
          "internalType": "uint256",
          "name": "",
          "type": "uint256"
        }
      ],
      "stateMutability": "view",
      "type": "function"
    },
    {
      "inputs": [],
      "name": "buyWithBNB",
      "outputs": [],
      "stateMutability": "payable",
      "type": "function"
    },
    {
      "inputs": [
        {
          "internalType": "address",
          "name": "token",
          "type": "address"
        },
        {
          "internalType": "uint256",
          "name": "amount",
          "type": "uint256"
        }
      ],
      "name": "buyWithOtherTokens",
      "outputs": [],
      "stateMutability": "nonpayable",
      "type": "function"
    },
    {
      "inputs": [],
      "name": "getBNBUSDTPrice",
      "outputs": [
        {
          "internalType": "uint256",
          "name": "",
          "type": "uint256"
        }
      ],
      "stateMutability": "view",
      "type": "function"
    },
    {
      "inputs": [],
      "name": "getMinBNBForPurchase",
      "outputs": [
        {
          "internalType": "uint256",
          "name": "",
          "type": "uint256"
        }
      ],
      "stateMutability": "view",
      "type": "function"
    },
    {
      "inputs": [],
      "name": "owner",
      "outputs": [
        {
          "internalType": "address",
          "name": "",
          "type": "address"
        }
      ],
      "stateMutability": "view",
      "type": "function"
    },
    {
      "inputs": [],
      "name": "renounceOwnership",
      "outputs": [],
      "stateMutability": "nonpayable",
      "type": "function"
    },
    {
      "inputs": [],
      "name": "seeSeaToken",
      "outputs": [
        {
          "internalType": "contract IERC20",
          "name": "",
          "type": "address"
        }
      ],
      "stateMutability": "view",
      "type": "function"
    },
    {
      "inputs": [
        {
          "internalType": "address",
          "name": "",
          "type": "address"
        }
      ],
      "name": "tokens",
      "outputs": [
        {
          "internalType": "contract IERC20",
          "name": "",
          "type": "address"
        }
      ],
      "stateMutability": "view",
      "type": "function"
    },
    {
      "inputs": [],
      "name": "totalPurchase",
      "outputs": [
        {
          "internalType": "uint256",
          "name": "",
          "type": "uint256"
        }
      ],
      "stateMutability": "view",
      "type": "function"
    },
    {
      "inputs": [
        {
          "internalType": "address",
          "name": "newOwner",
          "type": "address"
        }
      ],
      "name": "transferOwnership",
      "outputs": [],
      "stateMutability": "nonpayable",
      "type": "function"
    },
    {
      "inputs": [],
      "name": "withdrawBNB",
      "outputs": [],
      "stateMutability": "nonpayable",
      "type": "function"
    },
    {
      "inputs": [
        {
          "internalType": "uint256",
          "name": "amount",
          "type": "uint256"
        },
        {
          "internalType": "address",
          "name": "token",
          "type": "address"
        }
      ],
      "name": "withdrawTokens",
      "outputs": [],
      "stateMutability": "nonpayable",
      "type": "function"
    },
    {
      "stateMutability": "payable",
      "type": "receive"
    }
  ],
  "bytecode": {
    "object": "0x60a060405234801561001057600080fd5b5060405162000f7f38038062000f7f83398101604081905261003191610121565b338061005757604051631e4fbdf760e01b81526000600482015260240160405180910390fd5b610060816100b9565b50600180546001600160a01b039485166001600160a01b03199182161790915593831660805290821660008181526003602052604080822080548716909317909255919092168082529190208054909216179055610180565b600080546001600160a01b038381166001600160a01b0319831681178455604051919092169283917f8be0079c531659141344cd1fd0a4f28419497f9722a3daafe3b4186f6b6457e09190a35050565b6001600160a01b038116811461011e57600080fd5b50565b6000806000806080858703121561013757600080fd5b845161014281610109565b602086015190945061015381610109565b604086015190935061016481610109565b606086015190925061017581610109565b939692955090935050565b608051610dc7620001b8600039600081816101b7015281816103ff015281816104c80152818161079a015261090d0152610dc76000f3fe6080604052600436106100e15760003560e01c8063801441311161007f5780639a51eefa116100595780639a51eefa14610224578063a23947cf14610240578063e486033914610255578063f2fde38b1461028b57600080fd5b806380144131146101a55780638da5cb5b146101f1578063902dfe001461020f57600080fd5b80635a62012d116100bb5780635a62012d1461012c57806362b984cb1461014c578063715018a61461017a5780637b2581c21461018f57600080fd5b80631d111d13146100ed57806320f1fc6114610104578063398d92bb1461010c57600080fd5b366100e857005b600080fd5b3480156100f957600080fd5b506101026102ab565b005b61010261032a565b34801561011857600080fd5b50610102610127366004610bf9565b610598565b34801561013857600080fd5b50610102610147366004610c25565b6106fa565b34801561015857600080fd5b5061016766b1a2bc2ec5000081565b6040519081526020015b60405180910390f35b34801561018657600080fd5b506101026109df565b34801561019b57600080fd5b5061016760025481565b3480156101b157600080fd5b506101d97f000000000000000000000000000000000000000000000000000000000000000081565b6040516001600160a01b039091168152602001610171565b3480156101fd57600080fd5b506000546001600160a01b03166101d9565b34801561021b57600080fd5b506101676109f3565b34801561023057600080fd5b50610167670de0b6b3a764000081565b34801561024c57600080fd5b50610167610ad2565b34801561026157600080fd5b506101d9610270366004610c4f565b6003602052600090815260409020546001600160a01b031681565b34801561029757600080fd5b506101026102a6366004610c4f565b610b20565b6102b3610b60565b600080546040516001600160a01b039091169047908381818185875af1925050503d8060008114610300576040519150601f19603f3d011682016040523d82523d6000602084013e610305565b606091505b5050905080610327576040516304a206ad60e01b815260040160405180910390fd5b50565b6000670de0b6b3a764000061033d6109f3565b6103479034610c87565b6103519190610ca4565b905060006305f5e10061036c83670de0b6b3a7640000610c87565b6103769190610ca4565b905066b1a2bc2ec500008110156103a057604051632fbf396f60e21b815260040160405180910390fd5b600066b1a2bc2ec500006103bc670de0b6b3a764000084610c87565b6103c69190610ca4565b905080600254106103ea5760405163bb208db760e01b815260040160405180910390fd5b6040516370a0823160e01b81523060048201527f00000000000000000000000000000000000000000000000000000000000000006001600160a01b0316906370a0823190602401602060405180830381865afa15801561044e573d6000803e3d6000fd5b505050506040513d601f19601f820116820180604052508101906104729190610cc6565b8111156104925760405163bc6581f960e01b815260040160405180910390fd5b80600260008282546104a49190610cdf565b909155505060405163a9059cbb60e01b8152336004820152602481018290526000907f00000000000000000000000000000000000000000000000000000000000000006001600160a01b03169063a9059cbb906044016020604051808303816000875af1158015610519573d6000803e3d6000fd5b505050506040513d601f19601f8201168201806040525081019061053d9190610cf2565b90508061055d576040516304a206ad60e01b815260040160405180910390fd5b60405182815233907fda1dce1c1c09e2aac3b3102b3c2c05cd59916e58e0465257bb731da30aee82809060200160405180910390a250505050565b6105a0610b60565b6001600160a01b038082166000908152600360205260409020548291166105da576040516373b36eaf60e01b815260040160405180910390fd5b6040516370a0823160e01b81523060048201526001600160a01b038316906370a0823190602401602060405180830381865afa15801561061e573d6000803e3d6000fd5b505050506040513d601f19601f820116820180604052508101906106429190610cc6565b8311156106625760405163e02c4f5960e01b815260040160405180910390fd5b816001600160a01b031663a9059cbb6106836000546001600160a01b031690565b6040516001600160e01b031960e084901b1681526001600160a01b039091166004820152602481018690526044016020604051808303816000875af11580156106d0573d6000803e3d6000fd5b505050506040513d601f19601f820116820180604052508101906106f49190610cf2565b50505050565b6001600160a01b03808316600090815260036020526040902054839116610734576040516373b36eaf60e01b815260040160405180910390fd5b66b1a2bc2ec5000082101561075c57604051632fbf396f60e21b815260040160405180910390fd5b600066b1a2bc2ec50000610778670de0b6b3a764000085610c87565b6107829190610ca4565b6040516370a0823160e01b81523060048201529091507f00000000000000000000000000000000000000000000000000000000000000006001600160a01b0316906370a0823190602401602060405180830381865afa1580156107e9573d6000803e3d6000fd5b505050506040513d601f19601f8201168201806040525081019061080d9190610cc6565b81111561082d5760405163bc6581f960e01b815260040160405180910390fd5b806002600082825461083f9190610cdf565b90915550506001600160a01b038481166000908152600360205260408082205490516323b872dd60e01b815233600482015230602482015260448101879052919216906323b872dd906064016020604051808303816000875af11580156108aa573d6000803e3d6000fd5b505050506040513d601f19601f820116820180604052508101906108ce9190610cf2565b9050806108ee576040516304a206ad60e01b815260040160405180910390fd5b60405163a9059cbb60e01b8152336004820152602481018390526000907f00000000000000000000000000000000000000000000000000000000000000006001600160a01b03169063a9059cbb906044016020604051808303816000875af115801561095e573d6000803e3d6000fd5b505050506040513d601f19601f820116820180604052508101906109829190610cf2565b9050806109a2576040516304a206ad60e01b815260040160405180910390fd5b60405183815233907fda1dce1c1c09e2aac3b3102b3c2c05cd59916e58e0465257bb731da30aee82809060200160405180910390a2505050505050565b6109e7610b60565b6109f16000610b8d565b565b6000806000600160009054906101000a90046001600160a01b03166001600160a01b031663feaf968c6040518163ffffffff1660e01b815260040160a060405180830381865afa158015610a4b573d6000803e3d6000fd5b505050506040513d601f19601f82011682018060405250810190610a6f9190610d2e565b5093505092505060008142610a849190610d7e565b905060008313610aa7576040516311b177b960e31b815260040160405180910390fd5b610e10811115610aca576040516376b1e9f160e01b815260040160405180910390fd5b509092915050565b600080610add6109f3565b90506000610af766b1a2bc2ec5000064e8d4a51000610c87565b9050600082610b0e83670de0b6b3a7640000610c87565b610b189190610ca4565b949350505050565b610b28610b60565b6001600160a01b038116610b5757604051631e4fbdf760e01b8152600060048201526024015b60405180910390fd5b61032781610b8d565b6000546001600160a01b031633146109f15760405163118cdaa760e01b8152336004820152602401610b4e565b600080546001600160a01b038381166001600160a01b0319831681178455604051919092169283917f8be0079c531659141344cd1fd0a4f28419497f9722a3daafe3b4186f6b6457e09190a35050565b80356001600160a01b0381168114610bf457600080fd5b919050565b60008060408385031215610c0c57600080fd5b82359150610c1c60208401610bdd565b90509250929050565b60008060408385031215610c3857600080fd5b610c4183610bdd565b946020939093013593505050565b600060208284031215610c6157600080fd5b610c6a82610bdd565b9392505050565b634e487b7160e01b600052601160045260246000fd5b8082028115828204841417610c9e57610c9e610c71565b92915050565b600082610cc157634e487b7160e01b600052601260045260246000fd5b500490565b600060208284031215610cd857600080fd5b5051919050565b80820180821115610c9e57610c9e610c71565b600060208284031215610d0457600080fd5b81518015158114610c6a57600080fd5b805169ffffffffffffffffffff81168114610bf457600080fd5b600080600080600060a08688031215610d4657600080fd5b610d4f86610d14565b9450602086015193506040860151925060608601519150610d7260808701610d14565b90509295509295909350565b81810381811115610c9e57610c9e610c7156fea26469706673582212200804f4bf3666cd5b84c43409efac0b712e10b31756b4457bf210c220faabf2f464736f6c63430008140033",
    "linkReferences": {}
  },
  "methodIdentifiers": {
    "SEE_SEA_AI_PRECISION()": "9a51eefa",
    "USDT_PRICE()": "62b984cb",
    "buyWithBNB()": "20f1fc61",
    "buyWithOtherTokens(address,uint256)": "5a62012d",
    "getBNBUSDTPrice()": "902dfe00",
    "getMinBNBForPurchase()": "a23947cf",
    "owner()": "8da5cb5b",
    "renounceOwnership()": "715018a6",
    "seeSeaToken()": "80144131",
    "tokens(address)": "e4860339",
    "totalPurchase()": "7b2581c2",
    "transferOwnership(address)": "f2fde38b",
    "withdrawBNB()": "1d111d13",
    "withdrawTokens(uint256,address)": "398d92bb"
  },
  "id": 39
}