{
  "abi": [
    {
      "inputs": [
        {
          "internalType": "address",
          "name": "initialOwner",
          "type": "address"
        }
      ],
      "stateMutability": "nonpayable",
      "type": "constructor"
    },
    {
      "inputs": [
        {
          "internalType": "address",
          "name": "spender",
          "type": "address"
        },
        {
          "internalType": "uint256",
          "name": "allowance",
          "type": "uint256"
        },
        {
          "internalType": "uint256",
          "name": "needed",
          "type": "uint256"
        }
      ],
      "name": "ERC20InsufficientAllowance",
      "type": "error"
    },
    {
      "inputs": [
        {
          "internalType": "address",
          "name": "sender",
          "type": "address"
        },
        {
          "internalType": "uint256",
          "name": "balance",
          "type": "uint256"
        },
        {
          "internalType": "uint256",
          "name": "needed",
          "type": "uint256"
        }
      ],
      "name": "ERC20InsufficientBalance",
      "type": "error"
    },
    {
      "inputs": [
        {
          "internalType": "address",
          "name": "approver",
          "type": "address"
        }
      ],
      "name": "ERC20InvalidApprover",
      "type": "error"
    },
    {
      "inputs": [
        {
          "internalType": "address",
          "name": "receiver",
          "type": "address"
        }
      ],
      "name": "ERC20InvalidReceiver",
      "type": "error"
    },
    {
      "inputs": [
        {
          "internalType": "address",
          "name": "sender",
          "type": "address"
        }
      ],
      "name": "ERC20InvalidSender",
      "type": "error"
    },
    {
      "inputs": [
        {
          "internalType": "address",
          "name": "spender",
          "type": "address"
        }
      ],
      "name": "ERC20InvalidSpender",
      "type": "error"
    },
    {
      "inputs": [],
      "name": "EnforcedPause",
      "type": "error"
    },
    {
      "inputs": [],
      "name": "ExpectedPause",
      "type": "error"
    },
    {
      "inputs": [
        {
          "internalType": "address",
          "name": "owner",
          "type": "address"
        }
      ],
      "name": "OwnableInvalidOwner",
      "type": "error"
    },
    {
      "inputs": [
        {
          "internalType": "address",
          "name": "account",
          "type": "address"
        }
      ],
      "name": "OwnableUnauthorizedAccount",
      "type": "error"
    },
    {
      "anonymous": false,
      "inputs": [
        {
          "indexed": true,
          "internalType": "address",
          "name": "owner",
          "type": "address"
        },
        {
          "indexed": true,
          "internalType": "address",
          "name": "spender",
          "type": "address"
        },
        {
          "indexed": false,
          "internalType": "uint256",
          "name": "value",
          "type": "uint256"
        }
      ],
      "name": "Approval",
      "type": "event"
    },
    {
      "anonymous": false,
      "inputs": [
        {
          "indexed": true,
          "internalType": "address",
          "name": "previousOwner",
          "type": "address"
        },
        {
          "indexed": true,
          "internalType": "address",
          "name": "newOwner",
          "type": "address"
        }
      ],
      "name": "OwnershipTransferred",
      "type": "event"
    },
    {
      "anonymous": false,
      "inputs": [
        {
          "indexed": false,
          "internalType": "address",
          "name": "account",
          "type": "address"
        }
      ],
      "name": "Paused",
      "type": "event"
    },
    {
      "anonymous": false,
      "inputs": [
        {
          "indexed": true,
          "internalType": "address",
          "name": "from",
          "type": "address"
        },
        {
          "indexed": true,
          "internalType": "address",
          "name": "to",
          "type": "address"
        },
        {
          "indexed": false,
          "internalType": "uint256",
          "name": "value",
          "type": "uint256"
        }
      ],
      "name": "Transfer",
      "type": "event"
    },
    {
      "anonymous": false,
      "inputs": [
        {
          "indexed": false,
          "internalType": "address",
          "name": "account",
          "type": "address"
        }
      ],
      "name": "Unpaused",
      "type": "event"
    },
    {
      "inputs": [
        {
          "internalType": "address",
          "name": "owner",
          "type": "address"
        },
        {
          "internalType": "address",
          "name": "spender",
          "type": "address"
        }
      ],
      "name": "allowance",
      "outputs": [
        {
          "internalType": "uint256",
          "name": "",
          "type": "uint256"
        }
      ],
      "stateMutability": "view",
      "type": "function"
    },
    {
      "inputs": [
        {
          "internalType": "address",
          "name": "spender",
          "type": "address"
        },
        {
          "internalType": "uint256",
          "name": "value",
          "type": "uint256"
        }
      ],
      "name": "approve",
      "outputs": [
        {
          "internalType": "bool",
          "name": "",
          "type": "bool"
        }
      ],
      "stateMutability": "nonpayable",
      "type": "function"
    },
    {
      "inputs": [
        {
          "internalType": "address",
          "name": "account",
          "type": "address"
        }
      ],
      "name": "balanceOf",
      "outputs": [
        {
          "internalType": "uint256",
          "name": "",
          "type": "uint256"
        }
      ],
      "stateMutability": "view",
      "type": "function"
    },
    {
      "inputs": [
        {
          "internalType": "address",
          "name": "user",
          "type": "address"
        },
        {
          "internalType": "uint256",
          "name": "amount",
          "type": "uint256"
        }
      ],
      "name": "burn",
      "outputs": [],
      "stateMutability": "nonpayable",
      "type": "function"
    },
    {
      "inputs": [],
      "name": "createPool",
      "outputs": [],
      "stateMutability": "nonpayable",
      "type": "function"
    },
    {
      "inputs": [],
      "name": "decimals",
      "outputs": [
        {
          "internalType": "uint8",
          "name": "",
          "type": "uint8"
        }
      ],
      "stateMutability": "view",
      "type": "function"
    },
    {
      "inputs": [
        {
          "internalType": "address",
          "name": "user",
          "type": "address"
        },
        {
          "internalType": "uint256",
          "name": "amount",
          "type": "uint256"
        }
      ],
      "name": "mint",
      "outputs": [],
      "stateMutability": "nonpayable",
      "type": "function"
    },
    {
      "inputs": [],
      "name": "name",
      "outputs": [
        {
          "internalType": "string",
          "name": "",
          "type": "string"
        }
      ],
      "stateMutability": "view",
      "type": "function"
    },
    {
      "inputs": [],
      "name": "owner",
      "outputs": [
        {
          "internalType": "address",
          "name": "",
          "type": "address"
        }
      ],
      "stateMutability": "view",
      "type": "function"
    },
    {
      "inputs": [],
      "name": "pause",
      "outputs": [],
      "stateMutability": "nonpayable",
      "type": "function"
    },
    {
      "inputs": [],
      "name": "paused",
      "outputs": [
        {
          "internalType": "bool",
          "name": "",
          "type": "bool"
        }
      ],
      "stateMutability": "view",
      "type": "function"
    },
    {
      "inputs": [],
      "name": "renounceOwnership",
      "outputs": [],
      "stateMutability": "nonpayable",
      "type": "function"
    },
    {
      "inputs": [],
      "name": "symbol",
      "outputs": [
        {
          "internalType": "string",
          "name": "",
          "type": "string"
        }
      ],
      "stateMutability": "view",
      "type": "function"
    },
    {
      "inputs": [],
      "name": "totalSupply",
      "outputs": [
        {
          "internalType": "uint256",
          "name": "",
          "type": "uint256"
        }
      ],
      "stateMutability": "view",
      "type": "function"
    },
    {
      "inputs": [
        {
          "internalType": "address",
          "name": "to",
          "type": "address"
        },
        {
          "internalType": "uint256",
          "name": "value",
          "type": "uint256"
        }
      ],
      "name": "transfer",
      "outputs": [
        {
          "internalType": "bool",
          "name": "",
          "type": "bool"
        }
      ],
      "stateMutability": "nonpayable",
      "type": "function"
    },
    {
      "inputs": [
        {
          "internalType": "address",
          "name": "from",
          "type": "address"
        },
        {
          "internalType": "address",
          "name": "to",
          "type": "address"
        },
        {
          "internalType": "uint256",
          "name": "value",
          "type": "uint256"
        }
      ],
      "name": "transferFrom",
      "outputs": [
        {
          "internalType": "bool",
          "name": "",
          "type": "bool"
        }
      ],
      "stateMutability": "nonpayable",
      "type": "function"
    },
    {
      "inputs": [
        {
          "internalType": "address",
          "name": "newOwner",
          "type": "address"
        }
      ],
      "name": "transferOwnership",
      "outputs": [],
      "stateMutability": "nonpayable",
      "type": "function"
    },
    {
      "inputs": [],
      "name": "uniswapV2Pair",
      "outputs": [
        {
          "internalType": "address",
          "name": "",
          "type": "address"
        }
      ],
      "stateMutability": "view",
      "type": "function"
    },
    {
      "inputs": [],
      "name": "uniswapV2Router",
      "outputs": [
        {
          "internalType": "contract IUniswapV2Router02",
          "name": "",
          "type": "address"
        }
      ],
      "stateMutability": "view",
      "type": "function"
    },
    {
      "inputs": [],
      "name": "unpause",
      "outputs": [],
      "stateMutability": "nonpayable",
      "type": "function"
    },
    {
      "inputs": [],
      "name": "weth",
      "outputs": [
        {
          "internalType": "address",
          "name": "",
          "type": "address"
        }
      ],
      "stateMutability": "view",
      "type": "function"
    }
  ],
  "bytecode": {
    "object": "0x60806040523480156200001157600080fd5b50604051620013a4380380620013a48339810160408190526200003491620003b3565b336040518060400160405280600c81526020016b29b2b2b9b2b0902a37b5b2b760a11b815250604051806040016040528060048152602001635353414960e01b815250816003908162000088919062000489565b50600462000097828262000489565b50506005805460ff19169055506001600160a01b038116620000d457604051631e4fbdf760e01b8152600060048201526024015b60405180910390fd5b620000df816200011b565b50620000eb8162000175565b6200011481620000fe6012600a6200066a565b6200010e906305f5e1006200067b565b620001b9565b50620006ab565b600580546001600160a01b03838116610100818102610100600160a81b031985161790945560405193909204169182907f8be0079c531659141344cd1fd0a4f28419497f9722a3daafe3b4186f6b6457e090600090a35050565b6200017f620001f7565b6001600160a01b038116620001ab57604051631e4fbdf760e01b815260006004820152602401620000cb565b620001b6816200011b565b50565b6001600160a01b038216620001e55760405163ec442f0560e01b815260006004820152602401620000cb565b620001f3600083836200022e565b5050565b6005546001600160a01b036101009091041633146200022c5760405163118cdaa760e01b8152336004820152602401620000cb565b565b620002386200024a565b620002458383836200026f565b505050565b60055460ff16156200022c5760405163d93c066560e01b815260040160405180910390fd5b620002796200024a565b620002458383836001600160a01b038316620002af578060026000828254620002a3919062000695565b90915550620003239050565b6001600160a01b03831660009081526020819052604090205481811015620003045760405163391434e360e21b81526001600160a01b03851660048201526024810182905260448101839052606401620000cb565b6001600160a01b03841660009081526020819052604090209082900390555b6001600160a01b038216620003415760028054829003905562000360565b6001600160a01b03821660009081526020819052604090208054820190555b816001600160a01b0316836001600160a01b03167fddf252ad1be2c89b69c2b068fc378daa952ba7f163c4a11628f55a4df523b3ef83604051620003a691815260200190565b60405180910390a3505050565b600060208284031215620003c657600080fd5b81516001600160a01b0381168114620003de57600080fd5b9392505050565b634e487b7160e01b600052604160045260246000fd5b600181811c908216806200041057607f821691505b6020821081036200043157634e487b7160e01b600052602260045260246000fd5b50919050565b601f8211156200024557600081815260208120601f850160051c81016020861015620004605750805b601f850160051c820191505b8181101562000481578281556001016200046c565b505050505050565b81516001600160401b03811115620004a557620004a5620003e5565b620004bd81620004b68454620003fb565b8462000437565b602080601f831160018114620004f55760008415620004dc5750858301515b600019600386901b1c1916600185901b17855562000481565b600085815260208120601f198616915b82811015620005265788860151825594840194600190910190840162000505565b5085821015620005455787850151600019600388901b60f8161c191681555b5050505050600190811b01905550565b634e487b7160e01b600052601160045260246000fd5b600181815b80851115620005ac57816000190482111562000590576200059062000555565b808516156200059e57918102915b93841c939080029062000570565b509250929050565b600082620005c55750600162000664565b81620005d45750600062000664565b8160018114620005ed5760028114620005f85762000618565b600191505062000664565b60ff8411156200060c576200060c62000555565b50506001821b62000664565b5060208310610133831016604e8410600b84101617156200063d575081810a62000664565b6200064983836200056b565b806000190482111562000660576200066062000555565b0290505b92915050565b6000620003de60ff841683620005b4565b808202811582820484141762000664576200066462000555565b8082018082111562000664576200066462000555565b610ce980620006bb6000396000f3fe608060405234801561001057600080fd5b50600436106101375760003560e01c80635c975abb116100b857806395d89b411161007c57806395d89b41146102795780639a06b113146102815780639dc29fac14610289578063a9059cbb1461029c578063dd62ed3e146102af578063f2fde38b146102e857600080fd5b80635c975abb1461021f57806370a082311461022a578063715018a6146102535780638456cb591461025b5780638da5cb5b1461026357600080fd5b8063313ce567116100ff578063313ce567146101cd5780633f4ba83a146101dc5780633fc8cef3146101e657806340c10f19146101f957806349bd5a5e1461020c57600080fd5b806306fdde031461013c578063095ea7b31461015a5780631694505e1461017d57806318160ddd146101a857806323b872dd146101ba575b600080fd5b6101446102fb565b6040516101519190610b0e565b60405180910390f35b61016d610168366004610b71565b61038d565b6040519015158152602001610151565b600654610190906001600160a01b031681565b6040516001600160a01b039091168152602001610151565b6002545b604051908152602001610151565b61016d6101c8366004610b9d565b6103a7565b60405160128152602001610151565b6101e46103cb565b005b600754610190906001600160a01b031681565b6101e4610207366004610b71565b6103dd565b600854610190906001600160a01b031681565b60055460ff1661016d565b6101ac610238366004610bde565b6001600160a01b031660009081526020819052604090205490565b6101e46103f3565b6101e4610405565b60055461010090046001600160a01b0316610190565b610144610415565b6101e4610424565b6101e4610297366004610b71565b6105cd565b61016d6102aa366004610b71565b6105df565b6101ac6102bd366004610c02565b6001600160a01b03918216600090815260016020908152604080832093909416825291909152205490565b6101e46102f6366004610bde565b6105ed565b60606003805461030a90610c3b565b80601f016020809104026020016040519081016040528092919081815260200182805461033690610c3b565b80156103835780601f1061035857610100808354040283529160200191610383565b820191906000526020600020905b81548152906001019060200180831161036657829003601f168201915b5050505050905090565b60003361039b818585610630565b60019150505b92915050565b6000336103b5858285610642565b6103c08585856106c0565b506001949350505050565b6103d361071f565b6103db610752565b565b6103e561071f565b6103ef82826107a4565b5050565b6103fb61071f565b6103db60006107da565b61040d61071f565b6103db610834565b60606004805461030a90610c3b565b61042c61071f565b600680546001600160a01b031916737a250d5630b4cf539739df2c5dacb4c659f2488d908117909155604080516315ab88c960e31b8152905163ad5c4648916004808201926020929091908290030181865afa158015610490573d6000803e3d6000fd5b505050506040513d601f19601f820116820180604052508101906104b49190610c75565b600780546001600160a01b0319166001600160a01b039283161790556006546040805163c45a015560e01b81529051919092169163c45a01559160048083019260209291908290030181865afa158015610512573d6000803e3d6000fd5b505050506040513d601f19601f820116820180604052508101906105369190610c75565b6007546040516364e329cb60e11b81523060048201526001600160a01b03918216602482015291169063c9c65396906044016020604051808303816000875af1158015610587573d6000803e3d6000fd5b505050506040513d601f19601f820116820180604052508101906105ab9190610c75565b600880546001600160a01b0319166001600160a01b0392909216919091179055565b6105d561071f565b6103ef8282610871565b60003361039b8185856106c0565b6105f561071f565b6001600160a01b03811661062457604051631e4fbdf760e01b8152600060048201526024015b60405180910390fd5b61062d816107da565b50565b61063d83838360016108a7565b505050565b6001600160a01b0383811660009081526001602090815260408083209386168352929052205460001981146106ba57818110156106ab57604051637dc7a0d960e11b81526001600160a01b0384166004820152602481018290526044810183905260640161061b565b6106ba848484840360006108a7565b50505050565b6001600160a01b0383166106ea57604051634b637e8f60e11b81526000600482015260240161061b565b6001600160a01b0382166107145760405163ec442f0560e01b81526000600482015260240161061b565b61063d83838361097c565b6005546001600160a01b036101009091041633146103db5760405163118cdaa760e01b815233600482015260240161061b565b61075a61098f565b6005805460ff191690557f5db9ee0a495bf2e6ff9c91a7834c1ba4fdd244a5e8aa4e537bd38aeae4b073aa335b6040516001600160a01b03909116815260200160405180910390a1565b6001600160a01b0382166107ce5760405163ec442f0560e01b81526000600482015260240161061b565b6103ef6000838361097c565b600580546001600160a01b03838116610100818102610100600160a81b031985161790945560405193909204169182907f8be0079c531659141344cd1fd0a4f28419497f9722a3daafe3b4186f6b6457e090600090a35050565b61083c6109b2565b6005805460ff191660011790557f62e78cea01bee320cd4e420270b5ea74000d11b0c9f74754ebdbfc544b05a2586107873390565b6001600160a01b03821661089b57604051634b637e8f60e11b81526000600482015260240161061b565b6103ef8260008361097c565b6001600160a01b0384166108d15760405163e602df0560e01b81526000600482015260240161061b565b6001600160a01b0383166108fb57604051634a1406b160e11b81526000600482015260240161061b565b6001600160a01b03808516600090815260016020908152604080832093871683529290522082905580156106ba57826001600160a01b0316846001600160a01b03167f8c5be1e5ebec7d5bd14f71427d1e84f3dd0314c0f7b2291e5b200ac8c7c3b9258460405161096e91815260200190565b60405180910390a350505050565b6109846109b2565b61063d8383836109d6565b60055460ff166103db57604051638dfc202b60e01b815260040160405180910390fd5b60055460ff16156103db5760405163d93c066560e01b815260040160405180910390fd5b6109de6109b2565b61063d8383836001600160a01b038316610a0f578060026000828254610a049190610c92565b90915550610a819050565b6001600160a01b03831660009081526020819052604090205481811015610a625760405163391434e360e21b81526001600160a01b0385166004820152602481018290526044810183905260640161061b565b6001600160a01b03841660009081526020819052604090209082900390555b6001600160a01b038216610a9d57600280548290039055610abc565b6001600160a01b03821660009081526020819052604090208054820190555b816001600160a01b0316836001600160a01b03167fddf252ad1be2c89b69c2b068fc378daa952ba7f163c4a11628f55a4df523b3ef83604051610b0191815260200190565b60405180910390a3505050565b600060208083528351808285015260005b81811015610b3b57858101830151858201604001528201610b1f565b506000604082860101526040601f19601f8301168501019250505092915050565b6001600160a01b038116811461062d57600080fd5b60008060408385031215610b8457600080fd5b8235610b8f81610b5c565b946020939093013593505050565b600080600060608486031215610bb257600080fd5b8335610bbd81610b5c565b92506020840135610bcd81610b5c565b929592945050506040919091013590565b600060208284031215610bf057600080fd5b8135610bfb81610b5c565b9392505050565b60008060408385031215610c1557600080fd5b8235610c2081610b5c565b91506020830135610c3081610b5c565b809150509250929050565b600181811c90821680610c4f57607f821691505b602082108103610c6f57634e487b7160e01b600052602260045260246000fd5b50919050565b600060208284031215610c8757600080fd5b8151610bfb81610b5c565b808201808211156103a157634e487b7160e01b600052601160045260246000fdfea2646970667358221220bfce8a5a3f22d8309b32777065a187bbd62671e3b8f0509514307f9c261fdc2964736f6c63430008140033",
    "linkReferences": {}
  },
  "methodIdentifiers": {
    "allowance(address,address)": "dd62ed3e",
    "approve(address,uint256)": "095ea7b3",
    "balanceOf(address)": "70a08231",
    "burn(address,uint256)": "9dc29fac",
    "createPool()": "9a06b113",
    "decimals()": "313ce567",
    "mint(address,uint256)": "40c10f19",
    "name()": "06fdde03",
    "owner()": "8da5cb5b",
    "pause()": "8456cb59",
    "paused()": "5c975abb",
    "renounceOwnership()": "715018a6",
    "symbol()": "95d89b41",
    "totalSupply()": "18160ddd",
    "transfer(address,uint256)": "a9059cbb",
    "transferFrom(address,address,uint256)": "23b872dd",
    "transferOwnership(address)": "f2fde38b",
    "uniswapV2Pair()": "49bd5a5e",
    "uniswapV2Router()": "1694505e",
    "unpause()": "3f4ba83a",
    "weth()": "3fc8cef3"
  },
  "id": 40
}